:020000040000FA
:060000000BEF22F01200DC
:020006001200E6
:060008009AEF0DF012005A
:02000E00C250DE
:08001000020B01E0010E1200D9
:0600180031EF0EF01200B2
:02001E000300DD
:1000200075450000DF010000170000009644000045
:1000300000010000DF000000944400008C0000007C
:0400400002000000BA
:0C004400D9CFE6FFE1CFD9FFF70EDBCFEC
:1000500024F0F80EDBCF25F0F90EDBCF22F0FA0EFC
:10006000DBCF23F0FB0EDB50225C206EFC0EDB505E
:100070002358216EFD0EDBCF1AF0FE0EDBCF1BF0F6
:10008000FB0EDB501A5C186EFC0EDB501B58196E11
:10009000F50EDBCF1EF0F60EDBCF1FF0F70EDB50B8
:1000A0001E5C1C6EF80EDB501F581D6E00011C50AC
:1000B0001802F3CF16F0F4CF17F01902F3501726F9
:1000C0001D501802F350172616C008F017C009F08B
:1000D00020C00DF021C00EF0F7EC1DF008502424D4
:1000E000146E09502520156E14C0F3FFF46EE5520E
:1000F000E7CFD9FF1200D9CFE6FFE1CFD9FFFB0E42
:10010000DB50040B07E0FD0EDBCFDFF1FE0EDBCF93
:10011000E0F103D00101DF6BE06BFB0EDB50020B63
:1001200007E0FD0EDBCFE1F1FE0EDBCFE2F103D005
:100130000101E16BE26BFB0EDB50010B07E0FD0EF2
:10014000DBCFE3F1FE0EDBCFE4F103D00101E36B83
:10015000E46BE552E7CFD9FF1200D9CFE6FFE1CF3C
:10016000D9FFFD0EDBCFE6FFACEC21F0E55247EC0A
:1001700022F007EC00F00009FCE132EC22F0E5523D
:10018000E7CFD9FF1200D9CFE6FFE1CFD9FF020EAA
:10019000E126FD0EDBCFE6FFFE0EDBCFE6FFDDDF67
:1001A000E552E552F3CFDEFFF4CFDDFFDECF14F0F2
:1001B000DDCF15F0D890155004E6330E145C010E17
:1001C00015580DE3DECF16F0DDCF17F0173404E23B
:1001D0001650CC08020E175402E3F36A11D0DECF9A
:1001E00014F0DDCF15F0D890155004E6330E145CF2
:1001F000010E155803E2F368F46803D0010EF36EA4
:10020000F46A020EE15C02E2E16AE552E16EE55257
:10021000E7CFD9FF1200D9CFE6FFE1CFD9FFFD0E1E
:10022000DBCF08F0FE0EDBCF09F0030E081801E16A
:1002300009505CE0020E081801E109503DE0010E92
:10024000081801E109501EE0085070E109506EE104
:10025000010EE66E1B0EE66E2B0EE66E1B0EE66EB4
:10026000240EE66EBCEC15F0146E050EE15E145023
:10027000010EE66E1C0EE66E2B0EE66E1C0EE66E92
:10028000240E4DD0010EE66E1B0EE66E3C0EE66EA1
:100290001B0EE66E350EE66EBCEC15F0146E050E08
:1002A000E15E1450010EE66E1C0EE66E3C0EE66E2C
:1002B0001C0EE66E350E33D0010EE66E1B0EE66E9A
:1002C0004B0EE66E1B0EE66E440EE66EBCEC15F0B1
:1002D000146E050EE15E1450010EE66E1C0EE66E05
:1002E0004B0EE66E1C0EE66E440E19D0010EE66E45
:1002F0001B0EE66E5B0EE66E1B0EE66E540EE66E91
:10030000BCEC15F0146E050EE15E1450010EE66EA5
:100310001C0EE66E5B0EE66E1C0EE66E540EE66E6E
:10032000BCEC15F0146E050EE15E1450E552E7CFFB
:10033000D9FF1200E66A1B0EE66E7F0EE66E1B0EFC
:10034000E66EE66ABCEC15F0146E050EE15E145024
:10035000E66A1C0EE66E7F0EE66E1C0EE66EE66A20
:10036000BCEC15F0146E050EE15E14501200D9CFEE
:10037000E6FFE1CFD9FF020EE1260101EE510101B6
:10038000EC1904E10101EF510101ED1933E021EC19
:100390001BF0010EE66EE66A8BEC1BF0E552E552AF
:1003A000310EE66E360EE66EE66A4BEC1CF0E55258
:1003B000E552E5528150080B01E0010E0101126F78
:1003C000136B8250200B01E0010E146F156B8250ED
:1003D000100B01E0010E166F176B18C180F019C1E8
:1003E00081F01CC182F01DC183F000018469856920
:1003F000866987690101050EE85D000EE95944E34D
:10040000E86BE96B8150080B01E0010E146E156A70
:1004100001011251141802E1135115180BE081A6C5
:1004200005D01CC182F01DC183F004D01EC182F032
:100430001FC183F08250200B09E1010E141906E15F
:10044000155104E11AC180F01BC181F08250100BDC
:1004500009E1010E161906E1175104E118C180F0F7
:1004600019C181F08150080B01E0010E126F136B6E
:100470008250200B01E0010E146F156B8250100B9F
:1004800001E0010E166F176B00018451801909E11C
:100490008551811906E18651821902E1875183193C
:1004A00034E0010EDE6EDD6ADECF14F0DDCF15F034
:1004B000D890155004E6080E145C000E15580FE293
:1004C000800EE66EE66EDFCFE6FF38EC1BF0E552FD
:1004D000E552E552DF2A010EE7E3DB2AE5D70D0EF0
:1004E000E66E010EE66E82C0E6FF80C0E6FFBBEC62
:1004F00018F0E552E552E552E55280C084F081C023
:1005000085F082C086F083C087F0020EE15C02E2D3
:10051000E16AE552E16EE552E7CFD9FF1200D9CF8B
:10052000E6FFE1CFD9FF030EE1260101EE51010103
:10053000EC1904E10101EF510101ED191AE021EC80
:100540001BF0010EE66EE66A8BEC1BF0E552E552FD
:10055000320EE66E360EE66EE66A4BEC1CF0E552A5
:10056000E552E5520101EA6BEB6B0001886B896B88
:100570008A8A0101020EEA5D000EEB5901E27CD08D
:10058000EA6BEB6B030E0001881901E1895138E039
:10059000020E881901E1895126E0010E881901E156
:1005A000895115E088513DE189513BE1540EDF6EE0
:1005B0008150080B01E0010EE66ED950010FE96E83
:1005C000DACFEAFFE552E750EE6EED6A2AD0520E1E
:1005D000DF6E8150040B040A01E0010E146E156AEF
:1005E00014AE19D00BD0410EDF6E8250200B200AC2
:1005F00001E0010E146E156A14AE0DD015680BD013
:10060000420EDF6E8250100B100A01E0010E146ED4
:10061000156A14BE1568010E14C0DBFF020E15C06A
:10062000DBFF882B000E8923893507E288510308F8
:10063000000E895502E2886B896B010EDBCFE6FF65
:10064000020EDBCFE6FFDFCF14F0156A14BE15688B
:1006500014C0E6FF15C0E6FF870E166E440E176E37
:10066000186A16C0E6FFE66E18C0E6FFB7EC1EF08B
:10067000196E070EE15E1950030EE15C02E2E16AB9
:10068000E552E16EE552E7CFD9FF12000101EE51CC
:100690000101EC1904E10101EF510101ED1920E024
:1006A00021EC1BF0010EE66EE66A8BEC1BF0E552C6
:1006B000E552330EE66E360EE66EE66A4BEC1CF043
:1006C000E552E552E5528150080B01E0010E0101AF
:1006D0002A6F2B6B010E286F296B00018A6B8B6BC5
:1006E00001012851291132E0286B296B0A0E226F73
:1006F000236B266B276B040E206F216B1468030E8F
:10070000156E22C116F023C117F00A0ED8801656B6
:10071000000E1756165014C024F115C025F106E03E
:100720000101D89024372537E804FBE100018A6BEA
:100730008B6B20C1E6FF21C1E6FF24C1E6FF25C186
:10074000E6FFD9DCE552E552E552E552050E00011F
:100750008A1901E18B5101E1D6D0040E8A1901E119
:100760008B5101E1C2D0030E8A1901E18B5101E1E5
:1007700076D0020E8A1901E18B5143E0010E8A19ED
:1007800001E18B5110E08A5101E0CFD08B5101E0A3
:10079000CCD08150080B01E1C8D001012A512B11A6
:1007A00001E0C3D073D00101010EEA5D000EEB59E8
:1007B00001E2BBD0040E0101206F216B0101EA6B45
:1007C000EB6B01012207000E235B800E23155BE11A
:1007D0001468030E156E22C116F023C117F00A0E1D
:1007E000D8801656000E1756165014C024F115C0A6
:1007F00025F16CE00101D89024372537E804FBE1AE
:1008000065D00101010EEA5D000EEB5901E28DD0C9
:10081000020E0101206F216B0101EA6BEB6B0101FC
:100820002207000E235B800E23152DE11468030EB2
:10083000156E22C116F023C117F00A0ED880165685
:10084000000E1756165014C024F115C025F13EE0D5
:100850000101D89025332433E804FBE137D00101AE
:10086000010EEA5D000EEB5960E3010E0101206FFD
:10087000216B0101EA6BEB6B01012207000E235B88
:10088000800E23150BE00A0E226F236B00018A2BCA
:10089000000E8B230101EA6BEB6B47D01468030E4B
:1008A000156E22C116F023C117F00A0ED880165615
:1008B000000E1756165014C024F115C025F106E09D
:1008C0000101D89024372537E804FBE120C1E6FF79
:1008D00021C1E6FF24C1E6FF25C1E6FF7BEC00F065
:1008E000E552E552E552E55220D001010A0EEA5DDB
:1008F000000EEB5902E2949418D0948400018A2BE4
:10090000000E8B2312D094848150080B0EE101015C
:100910002A512B110AE000018A6B8B6B0101EA6BF3
:10092000EB6B010E0101286F296B8150080B01E070
:10093000010E01012A6F2B6B1200D9CFE6FFE1CF28
:10094000D9FF060EE1260101EE510101EC1904E187
:100950000101EF510101ED191EE021EC1BF0010E28
:10096000E66EE66A8BEC1BF0E552E552340EE66E5D
:10097000360EE66EE66A4BEC1CF0E552E552E552A7
:100980000101C969CA69C9C1CBF1CAC1CCF1CF6B38
:10099000D06BCD6BCE6B9EAA75D0EFEC20F0010131
:1009A000C86FC9C1CBF1CAC1CCF1040EDB6A050E18
:1009B000DB6A040EDBCF14F0050EDBCF15F0D89008
:1009C000155004E60D0E145C000E15583EE2040EA0
:1009D000DBCFE9FF050EDBCFEAFFD890E936EA3638
:1009E000D890E936EA362C0EE926010EEA22EECF3F
:1009F00014F0EFCF15F0C8C116F0176A16BE1768CD
:100A0000165014181CE11750151819E1040EDBCF0D
:100A1000E9FF050EDBCFEAFFD890E936EA36D89039
:100A2000E936EA362C0EE926010EEA22020EE92604
:100A3000000EEA22EECFC9F1EDCFCAF106D0040EC6
:100A4000DB2A050EB6E3DB2AB4D70101CB51C91965
:100A500002E1CC51CA1910E0010ECD6FCE6BCF6F01
:100A6000D06B000EC925E96E010ECA21EA6EEF5067
:100A7000E66E7DEC21F0E5520101E86BE96B0101C6
:100A8000EA6BEB6B0101CF51D01101E19CD0CF6B30
:100A9000D06B040EDB6A050EDB6A040EDBCF14F0AC
:100AA000050EDBCF15F0D890155004E60D0E145C42
:100AB000000E15586CE2040EDBCFE9FF050EDBCF0C
:100AC000EAFFD890E936EA36D890E936EA36600E81
:100AD000E926010EEA22EECF14F0EFCF15F0C9514E
:100AE00014181BE1CA51151818E1040EDBCFE9FFF9
:100AF000050EDBCFEAFFD890E936EA36D890E93622
:100B0000EA36600EE926010EEA22020EE926000E00
:100B1000EA22EECFDEFFEDCFDDFF040EDBCFE9FFF3
:100B2000050EDBCFEAFFD890E936EA36D890E936F1
:100B3000EA36940EE926010EEA22EECF14F0EFCF4A
:100B400015F0C95114181DE1CA5115181AE1040E07
:100B5000DBCFE9FF050EDBCFEAFFD890E936EA36B6
:100B6000D890E936EA36940EE926010EEA22020E02
:100B7000E926000EEA22020EEECFDBFF030EEDCFD8
:100B8000DBFF040EDB2A050E88E3DB2A86D7DECFE7
:100B9000E6FFDDCFE6FF166A020E176EDB5016C0C9
:100BA00014F017C015F005E0D89015321432E8049F
:100BB000FBE114C0E6FF15C0E6FF7BEC00F0E55258
:100BC000E552E552E5520101CD51CE111FE00A0E6A
:100BD000086E096AEAC10DF0EBC10EF04AEC1EF096
:100BE00006500101E825146E0750E921156E190E13
:100BF000D8801454000E155402E3949410D09484B9
:100C00000101CD6BCE6BC969CA6909D00101DF6BE7
:100C1000E06B0101E16BE26B0101E36BE46B060E3B
:100C2000E15C02E2E16AE552E16EE552E7CFD9FF0D
:100C30001200D9CFE6FFE1CFD9FF190EE126DF6A16
:100C4000010EDB6A7F0EF36E020EF3CFDBFF100E98
:100C5000F36E030EF3CFDBFF080EF36E040EF3CF3B
:100C6000DBFF140EF36E050EF3CFDBFF220EF36EE7
:100C7000060EF3CFDBFF410EF36E070EF3CFDBFF63
:100C8000080EDB6A600EF36E090EF3CFDBFF180E61
:100C9000F36E0A0EF3CFDBFF160EF36E0B0EF3CFDF
:100CA000DBFF110EF36E0C0EF3CFDBFF160EF36EAF
:100CB0000D0EF3CFDBFF180EF36E0E0EF3CFDBFF3E
:100CC000600EF36E0F0EF3CFDBFF100EDB6A110E1A
:100CD000DB6A120EDB6A410EF36E130EF3CFDBFFFD
:100CE0007F0EF36E140EF3CFDBFF410EF36E150E85
:100CF000F3CFDBFF160EDB6A170EDB6A180EDB6A1A
:100D00000101EE510101EC1904E10101EF51010172
:100D1000ED1901E1ADD021EC1BF0010EE66EE66AA3
:100D20008BEC1BF0E552E552350EE66E360EE66EA4
:100D3000E66A4BEC1CF0E552E552E552010EE66E18
:100D400032EC14F0E552030EE66E5BEC14F0E55263
:100D5000240EE66E77EC14F0E552DF6A080EDF5CD5
:100D600013E2D950010F146EDACF15F0DF500F01E6
:100D70001424E96E000EDA20EA6EEF50E66E93EC72
:100D800014F0E552DF2AEAD7350EE66E77EC14F060
:100D9000E552DF6A080EDF5C13E2D950090F146ECA
:100DA000DACF15F0DF500F011424E96E000EDA20BF
:100DB000EA6EEF50E66E93EC14F0E552DF2AEAD7C4
:100DC000E66A32EC14F0E552030EE66E5BEC14F0CA
:100DD000E552040EE66E77EC14F0E552DF6A080E79
:100DE000DF5C13E2D950010F146EDACF15F0DF503B
:100DF0000F011424E96E000EDA20EA6EEF50E66E61
:100E000093EC14F0E552DF2AEAD7140EE66E77EC85
:100E100014F0E552DF6A080EDF5C13E2D950110FBF
:100E2000146EDACF15F0DF500F011424E96E000EB6
:100E3000DA20EA6EEF50E66E93EC14F0E552DF2A0A
:100E4000EAD7DF6A040EDF5C0DE2EA6ADF34FE0BEC
:100E5000EA36E96ED70EE926010EEA22EE6AED6A5D
:100E6000DF2AF0D70101D36BD46BD569D6698A8AA2
:100E70000101050EEA5D000EEB592CE3EA6BEB6B0A
:100E80008F0EE66EE66AC3EC00F0E552E552F3CF52
:100E9000D1F1F4CFD2F10101010EF3180EE1D251DC
:100EA0000CE1D32B000ED423D43514E2D351030824
:100EB000000ED4550FE2D36B0CD0D11D0BE1D21D27
:100EC00009E1D307000ED45B800ED41503E0030EB6
:100ED000D36FD46B0101D551D31902E1D651D41986
:100EE0000EE09AEC01F0D3C1E6FFD4C1E6FF0BECB3
:100EF00001F0E552E552D3C1D5F1D4C1D6F1190EB6
:100F0000E15C02E2E16AE552E16EE552E7CFD9FF2A
:020F10001200CD
:0E0F1200C5EC0CF0FB0EDBCFF3FFDB06F3505B
:100F200000090AE013EC0DF0FA0E7EEC0DF0F3E18F
:100F3000151CF1E1010E01D0000EF4EF0CF0C5EC30
:100F40000CF03B0EE12402E3E168E652E16E010E93
:100F5000DB6A020EDB6AF90EDBCFF6FFFA0EDBCF9F
:100F6000F7FFFB0EDBCFF8FF0800F550DF6EDF5018
:100F700002E118EF0CF0250EDF5C02E00BEF0CF045
:100F8000030EDB6A040EDB6A050EDB6A060EDB6A03
:100F9000070EDB6A2DEC0CF02D0EDF5C0CE02B0E47
:100FA000DF5C09E0200EDF5C06E0230EDF5C03E07F
:100FB000300EDF5C1AE1DF50300A14E0130A0FE054
:100FC000030A0AE00B0A05E0060AE4E1030EDB80EF
:100FD000E1D7030EDB82DED7030EDB84DBD7030E03
:100FE000DB86D8D7030EDB88D5D72A0EDF5C1BE162
:100FF00029EC0CF077EC0CF010E0030EDB800868B5
:101000000968130EDBCF0DF0140EDBCF0EF01DECD4
:101010001EF0040E06C0DBFF03D0130E60EC0CF0D4
:101020002DEC0CF00BD0090EDB6ACEEC0CF003E0DB
:1010300042EC0DF0FAD7090E60EC0CF0030EDBB0B9
:10104000DB982E0EDF5C1BE12DEC0CF02A0EDF5C32
:101050000BE129EC0CF077EC0CF003E1130EB2EC91
:101060000CF02DEC0CF00BD0090EDB6ACEEC0CF082
:1010700003E042EC0DF0FAD7090EB2EC0CF0680E6A
:10108000DF5C07E12DEC0CF0680EDF5C1DE1030E68
:1010900018D0740EDF5C17E07A0EDF5C14E0480EA7
:1010A000DF5C06E0540EDF5C03E05A0EDF5C02E119
:1010B000020E07D06C0EDF5C03E06A0EDF5C04E119
:1010C000010E05EC0DF0C9DBDF506E0A01E17FD3A4
:1010D0001E0A01E192D1200A01E18FD13F0A01E10C
:1010E00049D11A0A01E146D10D0A01E143D1200A92
:1010F00001E140D13A0A01E13DD1200A01E13AD1B2
:10110000260A01E135D10D0A01E132D11A0A01E1C5
:10111000D9D0200A4AE0300A1FE0460A0EE0250A2C
:1011200001E083D3D950F90FE96EFF0EDA20EA6EA1
:10113000010EEE5E000EEE5AEE5A13EC0DF0250E87
:10114000E66E95DB03E1151C01E169D30FEC0DF0B0
:1011500001E26BD3DB2A69D3080EDB6A040EDB5095
:10116000010806E2040EDB04D7EC0CF0DB508BDB4D
:10117000080EDB5009E0030EDB50010B05E172DBCA
:1011800001E04DD3080EDB6A64DBEFCFDFFF87ECB5
:101190000DF003E1151C01E142D30FEC0DF001E36A
:1011A000DB2A60DB01E141D33AD3070EDB500208B2
:1011B0000FE153EC0DF0030E1AEC0DF00E0EEECF16
:1011C000DBFF0F0EEECFDBFF100EEECFDBFF20D0EC
:1011D000F70EDBCF17F0F80EDBCF18F0020E175E1C
:1011E000000E185AF70E17C0DBFFF80E18C0DBFF11
:1011F00017C0E9FF18C0EAFF0AEC0DF0166A0E0EE0
:1012000014C0DBFF0F0E15C0DBFF100E16C0DBFF96
:101210000E0EDBCFE6FF0F0EDBCFE6FF100EDBCFAF
:10122000E6FF07EC20F0E552E552E552130E07C049
:10123000DBFF140E08C0DBFF060EDB5005E0130ECB
:101240004EEC0DF001E26ADB72EC0DF002E2130EDF
:1012500037DB35EC0DF006E0040E4EEC0DF002E24B
:10126000050E2EDB030EDBB005D0FCDA01E0D7D291
:10127000080EDB6A090EDB6A0E0EDBCFF6FF0F0EDF
:10128000DBCFF7FF100EDBCFF8FF0800F550DF6E65
:10129000DF5014E078EC0DF011E287EC0DF003E183
:1012A000151C01E1BCD2BBDB01E3DB2A090EDB2A02
:1012B000D9500E0FE96E000ECBDBE7D7D3DA01E190
:1012C000B4D2ADD2C6DA110EEECFDBFF120EEDCFE7
:1012D000DBFF110EDBCFE6FF120EDBCFE6FFF9ECF2
:1012E0001FF0E552E552130EF3CFDBFF140EF4CFDF
:1012F000DBFF060EDB5004E0130ED0DB01E20EDB59
:1013000072EC0DF002E2130EDBDAAFDB05E0040E47
:10131000C5DB02E2050ED4DA030EDBB005D0A2DA9B
:1013200001E07DD2080EDB6A090EDB6A110EDBCF0D
:10133000E9FF120EDBCFEAFFEFCFDFFFDF5014E053
:10134000D7DB12E2E4DB03E1151C01E168D267DBC5
:1013500001E3DB2A090EDB2A110EDB2ADBCFE9FFD2
:10136000120EE8E3DB2AE6D77DDA01E15ED257D23E
:10137000030EDB8E070EDB0410E195DB040E5ADB57
:101380000A0EEECFDBFF0B0EEECFDBFF0C0EEECF27
:10139000DBFF0D0EEECFDBFF6CD0070EDB5003083A
:1013A0002CE1030EDBAE0DD0B2DA020E76DAEFCF0F
:1013B00014F0156A166A176A14AE39D015681668E3
:1013C00035D0F70EDBCF15F0F80EDBCF16F0020E9E
:1013D000155E000E165AF70E15C0DBFFF80E16C08C
:1013E000DBFF15C0E9FF16C0EAFFEFCF14F00A0ECD
:1013F00014C0DBFF0B0EDB6A38D0070EDB5002088F
:1014000009E1030EDBAE04D059DB16AE10D00ED0CE
:1014100055DB0DD0030EDBAE12D079DA020E3DDAC9
:10142000F9DA166A176A15AE02D016681768E2DA9A
:101430000C0E16C0DBFF0D0E17C0DBFF1AD0F70E27
:10144000DBCF16F0F80EDBCF17F0020E165E000EA3
:10145000175AF70E16C0DBFFF80E17C0DBFF16C0D9
:10146000E9FF17C0EAFFD6DAC5DA0C0EDB6A0D0E0B
:10147000DB6A060EDB5005E1010EF36E050EF3CFBD
:10148000DBFF150EDB6A160EDB6AD950370F146EC0
:10149000000EDA20156E390E14C0DBFF3A0E15C0AF
:1014A000DBFF380EDB6A080EDB6A0A0EAEDADF50AD
:1014B000780A12E0200A10E0280A0CE0200A0AE06C
:1014C0003F0A06E00D0A02E0200A08E1020E05D0FC
:1014D000080E03D0080EDF26100E97DA030EDBBECF
:1014E00002D0DB92DB94DB50800B24E08ADAD890C8
:1014F000030EEB50000A08E6000EEE5C000EEE58FC
:10150000000EEE58000EEE5815E213DA0B680C6868
:101510000D680E688AEC1FF00A0E02C0DBFF0B0E8E
:1015200003C0DBFF0C0E04C0DBFF0D0E05C0DBFFAC
:101530002D0E08D0030EDBA202D02B0E03D0DBA4AD
:1015400008D0200EF36E170EF3CFDBFF150EDB2A4B
:1015500002D0170EDB6A050EDB5003E1B7D901E1BB
:1015600089D0760E146E440E156E000E166E070EA0
:10157000DBCF17F0186A196A1A6A17C00BF018C087
:101580000CF019C00DF01AC00EF0D3D9AAEC20F05F
:1015900014500224F36E15500320F46E16500420EC
:1015A000F86EF4CFF7FFF3CFF6FF0800090EF5CF82
:1015B000DBFF580EDF5C0FE1610EF36E090E7BD985
:1015C0000AE3200E146E090EDBCFE7FF1450E75E2E
:1015D000090EE7CFDBFF070EDBCF14F0156A166AA2
:1015E000176A0FDA14C00BF015C00CF016C00DF01E
:1015F00017C00EF0EECF06F0EECF07F0EECF08F0FA
:10160000EFCF09F0AAEC20F009C0EDFF08C0EDFF14
:1016100007C0EDFF06C0EFFF390EDBCFE9FFDB06A9
:101620003A0EDBCFEAFF01E2DB06090EDBCFEFFF6C
:10163000150EDB2A4BD995E1030EDBA61DD06F0EEC
:10164000DF5C06E1C1D918E3150EDB285BDA14D0A4
:10165000780EDF5C09E0580EDF5C06E0620EDF5CAE
:1016600003E0420EDF5C08E1020EF36E160EF3CFCC
:10167000DBFF02D0150EDB6A030EDB50100B0EE011
:10168000040EDBCF14F0050EDB50D880145406E2B4
:10169000060EDB5003E1040EDB5034DA95D90AE282
:1016A000050EDBCFE7FF150EDB50E75E050EE7CF3B
:1016B000DBFF02D0050EDB6A040EDBCF14F0160E42
:1016C00045D9D880145414E2160EDBCFE6FF150E70
:1016D000DBCFE6FF040EDBCFE6FF050EDB50E55265
:1016E000E75CE552D880E754E552D880E7545FD9EB
:1016F000030EDB50010B0BE1080EDB5008E0B2D803
:1017000001E08DD0080EDB50BED8080EDB6A170E44
:10171000DB5007E088D9170EF1D903E1151C01E170
:101720007ED0160EDB5016E07ED9300EE66E9FD8C6
:1017300002E1151C74E077D9DFCFE6FF48EC1FF01B
:10174000E552E552E552F4CF15F00001F31C02E139
:10175000151C65E0050EDBCF14F0160EDB50D880AB
:10176000145409E2050EDBCFE7FF160EDB50E75EEF
:10177000050EE7CFDBFF300EE66E050ECBD94FE14D
:10178000390EDB2ADBCFE9FF3A0E01E3DB2ADBCFA0
:10179000EAFF090EEFCFDBFFDB500EE044D9090E64
:1017A000ADD902E1151C3BE0390EDB2ADBCFE9FFA6
:1017B0003A0EEDE3DB2AEBD755D831E1160EDBCF3D
:1017C000E6FF080EC3D8E552E7245DD82ED0070EF9
:1017D000DB50030A1CE0010A14E0030A07E07BD98E
:1017E000DBCFEEFF020EDBCFEDFF1FD0F5D8196A7D
:1017F00017AE02D0186819682CD8BCD819C0EEFFF3
:1018000014D0EAD817BE186824D8B4D80ED063D93B
:10181000DBCFEFFF0AD07BD905E1151C03E1F368AC
:10182000F46810D0FCD801E3DB2A79D9B4EF07F0D3
:10183000010EDBCF14F0020EDBCF15F014C0F3FF66
:1018400015C0F4FF3B0EE15C02E2E16AE552E16E95
:10185000CBD029D9020E1AEF0DF061D90800F5504E
:10186000DF6E1200200EE66E080E8AEF0DF048ECD7
:101870001FF0E552E552E552F3CF14F0F4CF15F026
:101880000001F31C1200146E156AD950010F4DD9D6
:101890001450EE261550ED221200185E000E195A53
:1018A000F70E18C0DBFFF80E19C0DBFF18C0E9FF08
:1018B00019C0EAFF1200DBCFF4FFF350F45C120012
:1018C000DB50E76E040EE7CFDBFF12000A0EDBCF22
:1018D00014F00B0EDBCF15F00C0EDBCF16F00D0E57
:1018E000DBCF17F014501510161017101200130E3E
:1018F000EECFDBFF140EEDCFDBFF130EDBCF14F0CA
:10190000140EDBCF15F00001800E15141200F70E37
:10191000DBCF18F0F80EDBCF19F01200050EDB500C
:10192000E66ED950130F01D9E552E750EE6EED6A1D
:1019300012000A0EDBCF06F00B0EDBCF07F00C0E09
:10194000DBCF08F00D0EDBCF09F01200DBCFE6FF96
:10195000150EDBCFE6FF050EDB50E552E724E5521E
:10196000E7241200DB50CED8010EF36E060EF3CF43
:10197000DBFF1200EE50EFCFEAFFE96E16C0EEFF7C
:1019800017C0EEFF18C0EEFF1200D9CFE6FFDACF86
:10199000E6FFE1CFD9FFE2CFDAFF1200DFCFE6FFAB
:1019A000E66AD9EC21F0E552E552F3501200E76EF9
:1019B000080EE7CFDBFF1200EECF14F0EECF15F0EC
:1019C000EFCF16F0176A1200050EDBCF14F0150EDC
:1019D000DB50D88014541200010EDBCF16F0020E3B
:1019E000DBCF17F0186A1200E552E5CFDAFFE7CF38
:1019F000D9FF12000A0E14C0DBFF0B0E15C0DBFF6F
:101A00001200D9500A0F95EF0DF0F36E070EF3CFC9
:101A1000DBFF1200EECF14F0EFCF15F01200010E35
:101A2000DB2A020E1200FC0EDBCFE6FFFD0EDBCF41
:101A3000E6FF1200145E000E155AF70E14C0DBFF0D
:101A4000F80E15C0DBFF14C0E9FF15C0EAFF120055
:101A5000DA20EA6EEF2AEECFF6FF000EEF22EECF8D
:101A6000F7FFEF22EECFF8FF1200040EDBCFE6FF08
:101A7000130EDB50E552E75C9ADFDB5004DF060E05
:101A8000DB501200090EDB500A0DF350DF24D00F9B
:101A9000E76E090EE7CFDBFF2DEF0CF0DB50F36EA6
:101AA000050E5BEF0CF0F70EDBCF14F0F80EDBCF7A
:101AB00015F01200DFCFE6FF37EF0CF028DF030E42
:101AC000ECDEDCEF0CF089EC07F0E552E552E55274
:101AD000E55200091200BDDEEE50EFCFEAFFE96EDD
:101AE000010E1200130EDB50F36E040E5BEF0CF0D0
:101AF000040EDB50F36E090E5BEF0CF0DBCFE6FF5C
:101B000037EF0CF0E76E050EE7CFDBFF12008BDF3F
:101B10005AEF0DF0DBCFE6FF86DF63EF0DF0D95013
:101B2000F90FE96EFF0E28EF0DF0E96E000EDA20D6
:041B3000EA6E120047
:0C1B3400DACFE4FFE2CFDAFFE9CFE4FFF4
:101B4000EACFE4FFF6CFE4FFF7CFE4FFF5CFE4FF01
:101B5000F3CFE4FFF4CFE4FFFACFE4FF00EE00F0B0
:101B6000140EE80403E3EECFE4FFFBD700EE14F01D
:101B7000120EE80403E3EECFE4FFFBD7E6529D50DC
:101B8000010B2A6E9E50010B2A141BE09E902C0E16
:101B9000E66ECF0EE66E0EEC21F0E552E552010145
:101BA000E82B000EE923E72B00018F8101010A0ECB
:101BB000E85D000EE95905E3E86BE96BEA2B000EDE
:101BC000EB23F250020B01E0010E2A6EF250100BD3
:101BD00001E0010E2A140CE0F29200018F83815083
:101BE000020B06E18F51040B03E08F958F898F97CD
:101BF000F050010B2A6EF050080B01E0010E2A1480
:101C00000CE0F09000018F858150010B06E18F51AF
:101C1000020B03E08F938F878F99E55200EE25F03A
:101C2000120EE80403E3E5CFEDFFFBD700EE13F05F
:101C3000140EE80403E3E5CFEDFFFBD7E5CFFAFF91
:101C4000E5CFF4FFE5CFF3FFE5CFF5FFE5CFF7FFF5
:101C5000E5CFF6FFE5CFEAFFE5CFE9FFE5CFDAFF15
:101C60001100D8CFE4FFE0CFE4FFE46EDACFE4FF69
:101C7000E2CFDAFFE9CFE4FFEACFE4FFF6CFE4FFFB
:101C8000F7CFE4FFF5CFE4FFF3CFE4FFF4CFE4FFB9
:101C9000FACFE4FF00EE00F0140EE80403E3EECF09
:101CA000E4FFFBD700EE14F0120EE80403E3EECFDE
:101CB000E4FFFBD7E652D9CFE6FFE1CFD9FF060E0E
:101CC000E126020EDB6A030EDB6A080EF36E040ED9
:101CD000F3CFDBFF050EDB6AF250040B01E0010ECF
:101CE000266EF250200B01E0010E261401E1CBD04C
:101CF000F294F00EE66ED80EE66E2AEC21F0E55274
:101D0000E5520101F251DFC126F0E0C127F005E004
:101D1000D89027322632E804FBE1010E2616000E89
:101D20002716D950020FE96EDACFEAFF2650EE12DD
:101D30002750ED120101F251E1C126F0E2C127F076
:101D400005E0D89027322632E804FBE1D890263609
:101D50002736020E2616000E2716D950020FE96EFE
:101D6000DACFEAFF2650EE122750ED120101F251B0
:101D7000E3C126F0E4C127F005E0D89027322632EF
:101D8000E804FBE1D89026362736D8902636273649
:101D9000040E2616000E2716D950020FE96EDACF70
:101DA000EAFF2650EE122750ED12040EDBCF28F08A
:101DB000050EDBCF29F00101F25128C026F029C021
:101DC00027F005E0D89026362736E804FBE1F80E28
:101DD00026161F0E2716D950020FE96EDACFEAFF3A
:101DE0002650EE122750ED128B928B90DE6ADD6A40
:101DF000DECF26F0DDCF27F00D0E265C000E275833
:101E000008E28B9289988B82DF2A010EF1E3DB2AAC
:101E1000EFD78B808B928B90DE6ADD6ADECF26F067
:101E2000DDCF27F00D0E265C000E275825E28B92A1
:101E3000010EE76E020EDBCF26F0030EDBCF27F09C
:101E4000E7502616276A2650E8B08988E8A08998C6
:101E5000D950020FE96EDACFEAFF010E0F0B06E050
:101E6000EC52D890ED32EF32E806FAE18B82DF2AAD
:101E7000010ED4E3DB2AD2D78B800101F22BF25181
:101E8000090801E2F26B060EE15C02E2E16AE5524A
:101E9000E16EE552E7CFD9FFE55200EE25F0120ED4
:101EA000E80403E3E5CFEDFFFBD700EE13F0140EDB
:101EB000E80403E3E5CFEDFFFBD7E5CFFAFFE5CF7D
:101EC000F4FFE5CFF3FFE5CFF5FFE5CFF7FFE5CF73
:101ED000F6FFE5CFEAFFE5CFE9FFE5CFDAFFE55012
:101EE000E5CFE0FFE5CFD8FF100091DB00018F6B5D
:101EF000050EE66E010EE66E8BEC1BF0E552E55228
:101F000081A802D003D8FCD758D8FAD7070EE66EBE
:101F1000030EE66E8BEC1BF0E552E552FA0EE66E10
:101F200095EC21F0E552FA0EE66E95EC21F0E552C3
:101F3000FA0EE66E95EC21F0E552FA0EE66E95EC9F
:101F400021F0E552050E0101EE6FEF6B9D80040E4E
:101F5000EC1901E1ED511FE0030EEC1901E1ED5127
:101F600017E0020EEC1901E1ED510FE0010EEC1942
:101F700001E1ED5107E0EC5110E1ED510EE1B7EC5C
:101F800001F00BD08FEC02F008D046EC03F005D046
:101F90009DEC04F002D019EC06F0ECC1EEF1EDC1BD
:101FA000EFF10BEC1BF00101040ED880EC55000E94
:101FB000ED55CDE2EC6BED6BCAD7060EE66E030E67
:101FC000E66E8BEC1BF0E552E552FA0EE66E95ECF0
:101FD00021F0E552FA0EE66E95EC21F0E552FA0E8C
:101FE000E66E95EC21F0E552FA0EE66E95EC21F0E6
:101FF000E55281A8FED7C80EE66E95EC21F0E552B9
:10200000040E0101EE6FEF6B9D80040EEC1901E1EF
:10201000ED511BE0030EEC1901E1ED5114E0020E4D
:10202000EC1901E1ED510DE0010EEC1901E1ED516A
:1020300006E0EC510BE1ED5109E118D807D0D7D8F3
:1020400005D06AD903D000DA01D01EDAECC1EEF176
:10205000EDC1EFF10BEC1BF00101040ED880EC5543
:10206000000EED55D2E2EC6BED6BCFD7D9CFE6FF8A
:10207000E1CFD9FF020EE126010EDE6EDD6A01011D
:10208000EE51EC1902E1EF51ED191BE021EC1BF0D0
:10209000E66AE66A8BEC1BF0E552E552310EE66E1D
:1020A000470EE66EE66A4BEC1CF0E552E552E5524F
:1020B00081A604D00B0E0101F36F02D00101F36B76
:1020C000F46B050EEA5D000EEB5901E286D0EA6B77
:1020D000EB6B2EEC1BF00101F43504E2F35109081F
:1020E000000EF45510E3DECF14F0DDCF15F0F35100
:1020F00014C0E3F115C0E4F106E00101D890E33724
:10210000E437E804FBE1010E0101F4AF02D0D890FE
:1021100003D0F35D000EF4591EE3F43504E2F351ED
:102120000A08000EF45517E3DECF14F0DDCF15F0EA
:10213000F3C116F0F4C117F01606000E175A165028
:1021400014C0E1F115C0E2F106E00101D890E137D9
:10215000E237E804FBE1020E0101F4AF02D0D890AF
:1021600003D0F35D000EF4591FE3F43504E2F3519C
:102170000B08000EF45518E3DECF14F0DDCF15F098
:10218000F3C116F0F4C117F0020E165E000E175AD6
:10219000165014C0DFF115C0E0F106E00101D8903F
:1021A000DF37E037E804FBE181A60AD00101F3073D
:1021B000000EF45B800EF41510E00C0EF36F0CD0E3
:1021C0000101F32B000EF423F43507E2F3510C0860
:1021D000000EF45502E2F36BF46B020EE15C02E2D6
:1021E000E16AE552E16EE552E7CFD9FF1200D9CF9F
:1021F000E6FFE1CFD9FFE652DF6A0101EC51EE19AB
:1022000002E1ED51EF1948E021EC1BF0E66AE66AC5
:102210008BEC1BF0E552E552320EE66E470EE66E91
:10222000E66A4BEC1CF0E552E552E552310EE66EE3
:10223000E66A040EE66E4BEC1CF0E552E552E55200
:10224000350EE66E050EE66E040EE66E4BEC1CF0E7
:10225000E552E552E552300EE66E3C0EE66E040E97
:10226000E66E4BEC1CF0E552E552E552310EE66E9F
:10227000730EE66E040EE66E4BEC1CF0E552E55272
:10228000E552350EE66E780EE66E040EE66E4BEC09
:102290001CF0E552E552E55200018FA90FD08F994D
:1022A0001E0E0101E6AF02D0D89003D0E55D000E0E
:1022B000E65904E2020EE527000EE62300018FA78F
:1022C0000DD08F970101E63504E3E551E208FF0EDA
:1022D000E65504E2020EE55F000EE65B1F0E01010B
:1022E000156AE525146EE6511522D8901436153678
:1022F0001450DF6E030EDF24E66EDFCFE6FF050E1F
:10230000E66E38EC1BF0E552E552E5528A8AE5525A
:10231000E552E7CFD9FF1200D9CFE6FFE1CFD9FFD1
:10232000020EE126DE6ADD6A0101EC51EE1902E1DE
:10233000ED51EF1958E021EC1BF0E66AE66A8BECF0
:102340001BF0E552E552330EE66E470EE66EE66A86
:102350004BEC1CF0E552E552E552300EE66EE66AB3
:10236000040EE66E4BEC1CF0E552E552E552310EE0
:10237000E66E160EE66E040EE66E4BEC1CF0E552B1
:10238000E552E552320EE66E300EE66E040EE66E53
:102390004BEC1CF0E552E552E552330EE66E4A0E68
:1023A000E66E040EE66E4BEC1CF0E552E552E5528B
:1023B000340EE66E630EE66E040EE66E4BEC1CF019
:1023C000E552E552E552350EE66E780EE66E040EE5
:1023D000E66E4BEC1CF0E552E552E552870EE66ED8
:1023E000ACEC21F0E55200018FA124D08F9147EC95
:1023F00022F007EC00F00108FCE032EC22F0F3CF11
:10240000DEFFF4CFDDFFD9CFE9FFDACFEAFF030E1D
:102410000F0B06E0EC52D890ED32EF32E806FAE10D
:10242000DFCFE6FFE66A050EE66E38EC1BF0E552FC
:10243000E552E552020EE15C02E2E16AE552E16E2C
:10244000E552E7CFD9FF12000101EC51EE1902E18C
:10245000ED51EF1912E021EC1BF0E66AE66A8BEC15
:102460001BF0E552E552340EE66E470EE66EE66A64
:102470004BEC1CF0E552E552E55281A402D0948465
:1024800001D094948A8A1200D9CFE6FFE1CFD9FF18
:10249000040EE126DE6ADD6A020EDB6A030EDB6AE9
:1024A0000101EC51EE1902E1ED51EF194AE021EC86
:1024B0001BF0E66AE66A8BEC1BF0E552E552350E3E
:1024C000E66E470EE66EE66A4BEC1CF0E552E5520E
:1024D000E552020EE66EE66E8BEC1BF0E552E5521D
:1024E000030EE66E040EE66E8BEC1BF0E552E55231
:1024F000040EE66E060EE66E8BEC1BF0E552E5521E
:102500002D0EE66E1B0EE66E010EE66E4BEC1CF019
:10251000E552E552E552300EE66E3C0EE66E010ED7
:10252000E66E4BEC1CF0E552E552E552310EE66EDC
:102530005E0EE66E010EE66E4BEC1CF0E552E552C7
:10254000E55200018FA159D08F910101F551080D7D
:10255000F350780B8709E66EACEC21F0E55247ECBE
:1025600022F007EC00F00108FCE032EC22F0F3CF9F
:10257000DEFFF4CFDDFFD9CFE9FFDACFEAFF020EAD
:102580000F0B06E0EC52D890ED32EF32E806FAE19C
:10259000DECF14F0DDCF15F0150E145E000E155AC7
:1025A000020E14C0DBFF030E15C0DBFF020EDBCFF3
:1025B00014F0030EDBCF15F0400E145C000E15581E
:1025C00006E2400EE66E020EDBCFE6FF05D0020EFD
:1025D000DBCFE6FF3F0EE66E0101F551E824010F67
:1025E000E66E38EC1BF0E552E552E5520101F52BA1
:1025F000F551030802E2010EF56F040EE15C02E200
:10260000E16AE552E16EE552E7CFD9FF12000B0E09
:10261000C16E896A8A6A8B6A8C6A8D6A0F0E926EA5
:102620001F0E936EB80E946E956A966A8C8495947C
:102630009F0EE66E46EC21F0E552F194750EE66EC3
:10264000CEEC20F0E5529F80060EE66E62EC21F0A3
:10265000E552FD0EE66E85EC20F0E552FD0EE66ECD
:102660005BEC20F0E552F08CFB0EE66E040EE66E9D
:10267000E90EE66EC2EC1FF0E552E552E552150E8A
:10268000E66EE66A3C0EE66E03EC1FF0E552E5529C
:10269000E552F0C1E6FF7DEC21F0E552F0C114F007
:1026A000F1C115F0D89015321432FF0E1416030E36
:1026B000151614C0E6FF15C0E6FF2CEC20F0E5521D
:1026C000E5529484D08EF28EF28C69EC13F0898AF4
:0226D0001200F6
:0E26D200140EE66EEBEC21F0E5528D82E66A06
:1026E00090D8E552010EE66E8CD8E55278EF13F0E3
:1026F000D9CFE6FFE1CFD9FF040EE126010EE66E49
:10270000B1D8E552E66ABCD8E552020EDB6A030E88
:10271000DB6A020EDBCF14F0030EDBCF15F0D8908E
:10272000155004E6080E145C000E155824E2020E43
:10273000DBCFE6FFC0D8E552E66AD9D8E552DE6ABB
:10274000DD6ADECF14F0DDCF15F0D890155004E629
:10275000400E145C000E155808E2E66AE4D8E55213
:10276000DF2A010EEEE3DB2AECD7020EDB2A030E92
:10277000D0E3DB2ACED7E66A75D8E552E66A80D880
:10278000E552020EDB6A030EDB6A020EDBCF14F0A9
:10279000030EDBCF15F0D890155004E6080E145C3C
:1027A000000E155824E2020EDBCFE6FF84D8E55276
:1027B000E66A9DD8E552DE6ADD6ADECF14F0DDCF31
:1027C00015F0D890155004E6400E145C000E155814
:1027D00008E2E66AA8D8E552DF2A010EEEE3DB2A1A
:1027E000ECD7020EDB2A030ED0E3DB2ACED7040E91
:1027F000E15C02E2E16AE552E16EE552E7CFD9FF22
:102800001200D9CFE6FFE1CFD9FF8D928D94010E52
:10281000E66E28D8E552FE0EDB503E0F836E8D82A9
:10282000040EE66E27EC22F0E5528D92040EE66E61
:1028300027EC22F0E552E66A15D8E552FE0EDB5091
:102840003E0F836E8D82040EE66E27EC22F0E55279
:102850008D92040EE66E27EC22F0E552E552E7CFAA
:10286000D9FF1200D9CFE6FFE1CFD9FFFE0EDB5032
:10287000E8B08D80E8A08D90E552E7CFD9FF120037
:10288000D9CFE6FFE1CFD9FF8D92899A8D94FE0EC4
:10289000DB50C00F836E8D82040EE66E27EC22F0B3
:1028A000E5528D92040EE66E27EC22F0E552E552D9
:1028B000E7CFD9FF1200D9CFE6FFE1CFD9FF8D9244
:1028C000899A8D94FE0EDB50070BB80F836E8D82B4
:1028D000040EE66E27EC22F0E5528D92040EE66EB1
:1028E00027EC22F0E552E552E7CFD9FF1200D9CF0D
:1028F000E6FFE1CFD9FF8D92899A8D94FE0EDB50D1
:102900003F0B400F836E8D82040EE66E27EC22F0A3
:10291000E5528D92040EE66E27EC22F0E552E55268
:10292000E7CFD9FF1200D9CFE6FFE1CFD9FF8D92D3
:10293000899A8D84FE0EDB50836E8D82040EE66EC6
:1029400027EC22F0E5528D92040EE66E27EC22F081
:10295000E552E552E7CFD9FF1200D9CFE6FFE1CF2C
:10296000D9FF020EE126DF6A010EDB6A020EF36E6A
:10297000010EDBCFF4FFF350F45C20E29568040E07
:10298000E66E27EC22F0E5528D92898A8D848D8245
:10299000040EE66E27EC22F0E5528D92040EE66EF0
:1029A00027EC22F0E5528350DF6E040EE66E27EC32
:1029B00022F0E552956A010EDB2AD8D7DF50146E5B
:1029C000020EE15C02E2E16AE552E16E1450E5526A
:1029D000E7CFD9FF1200D9CFE6FFE1CFD9FF050E2F
:1029E000E126DF6A010EDB6A020EDB6A030EDB6A98
:1029F000040EDB6AFE0EDB50146E156AD89015507B
:102A000004E6800E145C000E155805E37F0EF36E8D
:102A1000FE0EF3CFDBFF400EF36EFD0EDBCFF4FFB7
:102A2000F350F45C05E33F0EF36EFD0EF3CFDBFFD6
:102A3000020EF36EFC0EDBCFF4FFF350F45C05E303
:102A4000010EF36EFC0EF3CFDBFFFE0EDB50C00B6E
:102A5000E846E846DF6E070E146EFD0EDB50F80BFD
:102A6000E842E842E842145CE76E010EE7CFDBFF84
:102A7000080EF36EFD0EDBCFF4FFF350F45C04E3BD
:102A8000FD0EDB50070B02D0FD0EDB50E76E030E90
:102A9000E7CFDBFF400EF36EFE0EDBCFF4FFF3500B
:102AA000F45C04E3FE0EDB50C00F02D0FE0EDB50E0
:102AB000E76E020EE7CFDBFFDF50010A05E0010AF7
:102AC00006E1010EE66E01D0E66ACCDEE552010EAB
:102AD000DBCFE6FFF0DEE552020EDBCFE6FF07DFDD
:102AE000E5523BDFE76E040EE7CFDBFFFC0EDB5069
:102AF00013E0040EDBCFE6FF800E146E030EDB50F6
:102B000014C0E7FF070B04E0E742E79EE806FCE19C
:102B1000E750E552E71013D0040EDBCFE6FF800E3E
:102B2000146E030EDB5014C0E7FF070B04E0E7420E
:102B3000E79EE806FCE1E750E81CE552E714E76E83
:102B4000040EE7CFDBFF010EDBCFE6FFB4DEE5527C
:102B5000020EDBCFE6FFCBDEE552040EDBCFE6FF55
:102B6000E2DEE552050EE15C02E2E16AE552E16E69
:102B7000E552E7CFD9FF1200D9CFE6FFE1CFD9FF69
:102B8000120EE126020EDB6A030EDB6A040EDB6A1C
:102B9000050EDB6AFC0EDB50166E176AFE0EDB506C
:102BA000196AE850165C146E19501758156E060E07
:102BB00014C0DBFF070E15C0DBFFFB0EDB50166EEB
:102BC000176AFD0EDB50186E196AE850165C146E19
:102BD00019501758156E080E14C0DBFF090E15C0EA
:102BE000DBFFFE0EDB50E76E110EE7CFDBFFFD0EC5
:102BF000DB50E76E100EE7CFDBFF060EDBCF14F0E5
:102C0000070EDBCF15F015340BE214500008000E50
:102C1000155406E2010EF36E0C0EF3CFDBFF0AD063
:102C2000D950060FE96EDACFEAFFEE50ED1005E15C
:102C30000C0EDB6A0D0EDB6A14D00C0EDB680D0E79
:102C4000DB6808680968060EDBCF0DF0070EDBCFE6
:102C50000EF01DEC1EF0060E06C0DBFF070E07C0CF
:102C6000DBFF080EDBCF14F0090EDBCF15F01534B7
:102C70000BE214500008000E155406E2010EF36E2C
:102C80000E0EF3CFDBFF0AD0D950080FE96EDACF72
:102C9000EAFFEE50ED1005E10E0EDB6A0F0EDB6A67
:102CA00014D00E0EDB680F0EDB6808680968080E8A
:102CB000DBCF0DF0090EDBCF0EF01DEC1EF0080E81
:102CC00006C0DBFF090E07C0DBFF060EDBCF14F0EA
:102CD000070EDBCF15F0080EDBCF16F0090EDBCFA9
:102CE00017F017501518E8AE02D0153404D0145060
:102CF000165C1550175805E2060EDBCF08F0070EDC
:102D000004D0080EDBCF08F0090EDBCF09F00A0E65
:102D100008C0DBFF0B0E09C0DBFFDE6ADD6ADECF19
:102D200014F0DDCF15F0010EE76E0A0EDBCF16F0C2
:102D30000B0EDBCF17F0E7501626000E17221750A8
:102D40001518E8AE02D0153404D01450165C155096
:102D5000175801E28FD0FA0EDBCFE6FF100EDBCF63
:102D6000E6FF110EDBCFE6FF36DEE552E552E55217
:102D7000060EDBCF14F0070EDBCF15F0D950020F93
:102D8000E96EDACFEAFF1450EE261550ED22080E58
:102D9000DBCF14F0090EDBCF15F0D950040FE96E2C
:102DA000DACFEAFF1450EE261550ED22020EDBCFEB
:102DB00014F0030EDBCF15F00A0EDBCF16F00B0E6E
:102DC000DBCF17F017501518E8AE02D0153404D039
:102DD0001450165C1550175818E20A0EDBCF14F089
:102DE0000B0EDBCF15F0D950020FE96EDACFEAFFF8
:102DF0001450EE5E1550ED5A110EDBCFE7FF0C0EAE
:102E0000DB50E726110EE7CFDBFF040EDBCF14F01B
:102E1000050EDBCF15F00A0EDBCF16F00B0EDBCF65
:102E200017F017501518E8AE02D0153404D014501E
:102E3000165C1550175818E20A0EDBCF14F00B0E73
:102E4000DBCF15F0D950040FE96EDACFEAFF14504A
:102E5000EE5E1550ED5A100EDBCFE7FF0E0EDB5085
:102E6000E726100EE7CFDBFFDF2A010E01E257D77E
:102E7000DB2A55D7120EE15C02E2E16AE552E16E0F
:102E8000E552E7CFD9FF1200D9CFE6FFE1CFD9FF56
:102E9000080EE126DF6A010EDB6A020EDB6A030E12
:102EA000DB6AFE0EDB50146E156AD890155004E6EE
:102EB000800E145C000E155801E300D1400EF36E35
:102EC000FD0EDBCFF4FFF350F45C01E3F7D0FE0E10
:102ED000DB50C00BE846E846DF6E070E146EFD0EB1
:102EE000DB50F80BE842E842E842145CE76E010E62
:102EF000E7CFDBFF080EF36EFD0EDBCFF4FFF350E0
:102F0000F45C04E3FD0EDB50070B02D0FD0EDB503A
:102F1000E76E030EE7CFDBFF400EF36EFE0EDBCF56
:102F2000F4FFF350F45C04E3FE0EDB50C00F02D05C
:102F3000FE0EDB50E76E020EE7CFDBFFDF50010A2B
:102F400005E0010A06E1010EE66E01D0E66A8ADCC0
:102F5000E552040EDB6A080EF36E040EDBCFF4FFBD
:102F6000F350F45C01E3AAD0060EDB6A050EDB6ABF
:102F7000020EDBCFE6FFBBDCE552010EDBCFE6FF46
:102F80009ADCE552EADCE76E060EE7CFDBFF030EC4
:102F9000DBCF17F0040EDB50156E166AFC0EDB500B
:102FA000080DF3501524F66EF4501620F76E160E29
:102FB000F626320EF7220800F55017C0E7FFE75259
:102FC00004E0E8427F0BE706FCE1146E060EDBCF5F
:102FD000E7FF1450E712060EE7CFDBFF020EDBCF50
:102FE000E6FF85DCE552060EDBCFE6FF9CDCE55212
:102FF000010EDB04146EE83446E2030EDB5043E0BE
:10300000020EDBCFE6FF73DCE552010EDB04E66E59
:1030100052DCE552A2DCE76E050EE7CFDBFF030EC4
:10302000DBCFE6FF080EE552D880E754176E040E9A
:10303000DB50156E166AFC0EDB50080DF35015249C
:10304000F66EF4501620F76E160EF626320EF722A4
:103050000800F550175204E0E846FE0B1706FCE1A5
:10306000146E050EDBCFE7FF1450E712050EE7CF15
:10307000DBFF020EDBCFE6FF3ADCE552050EDBCFCD
:10308000E6FF51DCE552020EDB2ADF0408E1400EC8
:10309000F36E020EDBCFF4FFF350F45C0FE2020E8E
:1030A000DB50400808E1010EDF6EE66A32EC14F0F6
:1030B000E552020EDB6A040EDB2A4DD7080EE15CF6
:1030C00002E2E16AE552E16EE552E7CFD9FF120074
:1030D000D9CFE6FFE1CFD9FF020EE126FE0EDB508D
:1030E000DF6EFD0EDB50E76E010EE7CFDBFFFB0E60
:1030F000DBCFF6FFFC0EDBCFF7FF0800F55031E029
:10310000FB0EDBCFF6FFFC0EDBCFF7FF0800F55020
:103110000D0A09E0070A0BE1FD0EDB50F80FE76E20
:10312000010EE7CFDBFFFE0EDB50DF6E12D0FB0E91
:10313000DBCFF6FFFC0EDBCFF7FF0800F550E66EA5
:10314000010EDBCFE6FFDFCFE6FF9EDEE552E55264
:10315000E552FB0EDB2AFC0E01E3DB2A080EDF261C
:10316000C6D7020EE15C02E2E16AE552E16EE55289
:10317000E7CFD9FF1200D9CFE6FFE1CFD9FF020E8A
:10318000E126FE0EDB50DF6EFD0EDB50E76E010E1A
:10319000E7CFDBFFFB0EDBCFE9FFFC0EDBCFEAFF67
:1031A000EF502FE0FB0EDBCFE9FFFC0EDBCFEAFF99
:1031B000EF500D0A09E0070A0BE1FD0EDB50F80F96
:1031C000E76E010EE7CFDBFFFE0EDB50DF6E11D0A6
:1031D000FB0EDBCFE9FFFC0EDBCFEAFFEF50E66E24
:1031E000010EDBCFE6FFDFCFE6FF4EDEE552E55214
:1031F000E552FB0EDB2AFC0E01E3DB2A080EDF267C
:10320000C9D7020EE15C02E2E16AE552E16EE552E5
:06321000E7CFD9FF120018
:0A321600FFFFFFFFFFFFFFFFFFFFB8
:10322000FFFFFFFFFFFFFFFFFFFFFFFFFFFFFFFFAE
:10323000FFFFFFFFFFFFFFFFFFFFFFFFFFFFFFFF9E
:10324000FFFFFFFFFFFFFFFFFFFFFFFFFFFFFFFF8E
:10325000FFFFFFFFFFFFFFFFFFFFFFFFFFFFFFFF7E
:10326000FFFFFFFFFFFFFFFFFFFFFFFFFFFFFFFF6E
:10327000FFFFFFFFFFFFFFFFFFFFFFFFFFFFFFFF5E
:10328000FFFFFFFFFFFFFFFFFFFFFFFFFFFFFFFF4E
:10329000FFFFFFFFFFFFFFFFFFFFFFFFFFFFFFFF3E
:1032A000FFFFFFFFFFFFFFFFFFFFFFFFFFFFFFFF2E
:1032B000FFFFFFFFFFFFFFFFFFFFFFFFFFFFFFFF1E
:1032C000FFFFFFFFFFFFFFFFFFFFFFFFFFFFFFFF0E
:1032D000FFFFFFFFFFFFFFFFFFFFFFFFFFFFFFFFFE
:1032E000FFFFFFFFFFFFFFFFFFFFFFFFFFFFFFFFEE
:1032F000FFFFFFFFFFFFFFFFFFFFFFFFFFFFFFFFDE
:10330000FFFFFFFFFFFFFFFFFFFFFFFFFFFFFFFFCD
:10331000FFFFFFFFFFFF00000000000000000000B3
:10332000005F0000000005030005030000002062AC
:103330003E633E23020000242A7A2F2A12004225EF
:1033400012082452210020564955225840000403F7
:103350000000000000000000003E22414100414109
:10336000223E000000000022147F14220000080802
:10337000087F08080800503000000000000008081E
:1033800008080808080860600000000000004020ED
:10339000100804020100003E414141413E0000008E
:1033A000427F40000000006251514949460000221E
:1033B00041494949360000302824227F2000002F4F
:1033C000454545453900003E49494949320000011B
:1033D00001611905030000364949494936000026B4
:1033E000494949493E00000036360000000000000F
:1033F000563600000000000000081422410014149A
:1034000014141414140041221408000000000002D7
:103410000151090906001C2259554D120C00601873
:10342000161116186000007F494949493600001CF2
:10343000224141412200007F414141221C00007F86
:10344000494949494100007F090909090100001C57
:10345000224149493A00007F080808087F0000001F
:10346000417F410000000020404040403F00007F7D
:10347000100814224100007F4040404040007F027D
:103480000C300C027F00007F020408107F00001C3B
:10349000224141221C00007F090909090600001C85
:1034A000224151225C00007F0909192946000026AB
:1034B0004949494932000101017F01010100003FF2
:1034C000404040403F00030C3040300C03001F6080
:1034D000180618601F00412214081422410001023E
:1034E0000478040201000041615149454300000095
:1034F00000007F414100002B2C782C2B0000414123
:103500007F000000000000000201020000004040B7
:103510004040404040000503000000000000002043
:10352000545454780000007F484444380000003868
:1035300044444428000000384444487F00000038D8
:103540005454541800000000047E050100000008D7
:103550005454543C0000007F08040478000000002C
:10356000007D00000000002040403D000000000001
:103570007F10284400000000017F00000000007C54
:10358000047804780000007C080404780000003807
:10359000444444380000007C14141408000000085F
:1035A0001414147C0000007C080404080000004887
:1035B00054545424000000043E4444200000003CC5
:1035C0004040207C0000000C3040300C0000001C0B
:1035D0006018601C000000442810284400000044CB
:1035E000582018040000004464544C4400000000BB
:1035F0000008364141000000007F0000000041410A
:103600003608000000000804040810100800FFFF3E
:06361000FFFFFFFFFFFFBA
:0A36160081A80FD000018F51200B96
:103620000FE0020E0101E75D0BE30101EC2B000E40
:10363000ED2300018F9B120000018F8B0101E76BCE
:10364000120000018F6B94848A9A0101E56BE66B8E
:103650000101E86BE96B02D878EF13F00101DF6B31
:10366000E06B0101E16BE26B0101E36BE46B1200C3
:10367000D9CFE6FFE1CFD9FFE652DF6A010EE66E51
:1036800032EC14F0E552E66A40EC14F0E552FE0E1E
:10369000DBCFE6FF5BEC14F0E552E66A77EC14F062
:1036A000E552DF6ADF50146E156AD890155004E6B3
:1036B000800E145C000E155829E2400EDF5C12E10A
:1036C000E66A32EC14F0E552E66A40EC14F0E5529A
:1036D000FE0EDBCFE6FF5BEC14F0E552E66A77EC1A
:1036E00014F0E552FD0EDBCF14F0DF50D8801454F7
:1036F00007E3FC0EDB50D880DF5402E3E66801D01C
:10370000E66A93EC14F0E552DF2ACCD7E552E55295
:10371000E7CFD9FF1200D9CFE6FFE1CFD9FF160ED0
:10372000E126DF6A010EDB6AD950020FE96EDACFBB
:10373000EAFF1A0EEE6E3A0EED6ED950040FE96EE6
:10374000DACFEAFF620EEE6E3A0EED6ED950060F3A
:10375000E96EDACFEAFF990EEE6E3A0EED6ED950B1
:10376000080FE96EDACFEAFFB90EEE6E3A0EED6E93
:10377000D9500A0FE96EDACFEAFFD90EEE6E3A0E93
:10378000ED6ED9500C0FE96EDACFEAFFF90EEE6E4E
:103790003A0EED6ED9500E0FE96EDACFEAFF5A0EEF
:1037A000EE6E3B0EED6ED950100FE96EDACFEAFFE8
:1037B000B30EEE6E3B0EED6ED950020F146EDACFE3
:1037C00015F0FD0EDB50020D1450F324E96EDA50B3
:1037D000F420EA6EEECFF6FFEFCFF7FF0800010E00
:1037E000F5CFDBFFE66E32EC14F0E552E66A40EC12
:1037F00014F0E552FE0EDBCFE6FF5BEC14F0E55271
:10380000E66A77EC14F0E552DF6A010EDB50DF5C0C
:1038100038E2400EDF5C12E1E66A32EC14F0E55269
:10382000E66A40EC14F0E552FE0EDBCFE6FF5BECFF
:1038300014F0E552E66A77EC14F0E552DF50166EAC
:10384000176AD950020F146EDACF15F0FD0EDB5057
:10385000020D1450F324E96EDA50F420EA6E16508B
:10386000EE24F66E1750EE20F76E010EF626000ECF
:10387000F7220800F550E66E93EC14F0E552DF2ACB
:10388000C4D7160EE15C02E2E16AE552E16EE55250
:10389000E7CFD9FF1200D9CFE6FFE1CFD9FF030E62
:1038A000E126DF6A010EDB6A020EDB6A300EF36E80
:1038B000FC0EDBCFF4FFF350F45C0CE3FC0EDB50AA
:1038C000390808E3FC0EDB500F0BE76E020EE7CF62
:1038D000DBFF09D0FC0EDB502D0869E10A0EF36E08
:1038E000020EF3CFDBFFFD0EDB50DF6EDF503F0833
:1038F00011E2E66A32EC14F0E552E66A40EC14F0AC
:10390000E552FE0EDBCFE6FF5BEC14F0E552DFCFB5
:10391000E6FF12D0010EE66E32EC14F0E552E66AD4
:1039200040EC14F0E552FE0EDBCFE6FF5BEC14F04A
:10393000E552400EDF5CE66E77EC14F0E552010EC6
:10394000DB6A080EF36E010EDBCFF4FFF350F45C7C
:103950002EE2010EDB50DF24400812E1E66A32EC71
:1039600014F0E552E66A40EC14F0E552FE0EDBCFAF
:10397000E6FF5BEC14F0E552E66A77EC14F0E552F2
:10398000010EDBCFE6FF020EDB50080DF350E552CF
:10399000E724F76AC20FF66E390EF7220800F550D9
:1039A000E66E93EC14F0E552010EDB2ACAD7030E43
:1039B000E15C02E2E16AE552E16EE552E7CFD9FF50
:0239C0001200F3
:0E39C200003E414141413E000000427F400076
:1039D00000000062515149494600002241494949CD
:1039E000360000302824227F2000002F4545454521
:1039F0003900003E49494949320000010161190579
:103A000003000036494949493600002649494949D9
:103A10003E00080808427F40000047007F08080871
:103A2000087F0060181611161860007F090919290F
:103A300046007F414141221C004040404040400040
:103A40001C2241414122007F080808087F007F496D
:103A500049494941001C2241414122007F1008147C
:103A6000224136007C04780478003844444438000D
:103A70000C3040300C003854545418004040404042
:103A800040007C04780478003844444438003844CA
:103A900044487F0038545454181F412214081422FB
:103AA0004100080808002054545478004428102885
:103AB00044007D0048545454241F01020478040239
:103AC00001000808080020545454780044281028A5
:103AD00044007D0048545454241F0041615149451D
:103AE0004300080808002054545478004428102843
:103AF00044007D004854545424600020404040401D
:103B00003F00010204780402010060181611161823
:103B100060007F1008142241003F404040403F00B9
:103B20007F020C300C027F001C224141221C007FCE
:103B3000020408107F001C224141221C00000000EA
:103B40000000427F40000001016119050300043EAE
:103B5000444420007F080404780058007F080808C7
:103B6000087F002054545478007C0804040800386E
:103B70004444487F001C2241414122007F08040444
:103B800078003854545418003844444428007F10B6
:103B9000284400404040404040007F020C300C026E
:103BA0007F00384444443800384444487F00385447
:103BB0005454183A7F020C300C027F0038444444BD
:103BC00038000C3040300C00385454541800404039
:103BD00040404040007F020C300C027F00384444DB
:0E3BE000443800384444487F00385454541888
:023BEE00006A6B
:103BF0000EAE00EF1EF00D6C0E1EE86A0E22001EC7
:103C000009AE08EF1EF0086C091EE86A0922001EC2
:103C1000C3EC21F009BE18EF1EF000AE000C086CDA
:103C2000091EE86A0922046C051EE86A0522000CD8
:103C300000BE0FEF1EF00188FF0C09C013F008C092
:103C400012F008500D02F4CF07F0F3CF06F0095040
:103C50000E02F4CF09F0F3CF08F00D02F35007265F
:103C6000F4500822E86A092212500E02F350072687
:103C7000F4500822E86A09220EAE43EF1EF01250FB
:103C8000085E1350095A13AE000C0D50085E0E501A
:103C9000095A000C08C012F008500D02F4CF07F0CA
:103CA000F3CF06F009500E02F4CF09F0F3CF08F07D
:103CB0000D02F3500726F4500822E86A0922125038
:103CC0000E02F3500726F4500822E86A0922000C7D
:103CD0001E0EF66E000EF76E000EF86E0101090062
:103CE000F550FB6F0900F550FC6F03E1FB6701D055
:103CF0003DD00900F550F66F0900F550F76F090047
:103D0000F550F86F09000900F550E96E0900F5500B
:103D1000EA6E090009000900F550F96F0900F55035
:103D2000FA6F09000900F6CFFDF1F7CFFEF1F8CFE9
:103D3000FFF1F6C1F6FFF7C1F7FFF8C1F8FF010187
:103D4000F95302E1FA5307E00900F550EE6EF90766
:103D5000F8E2FA07F9D7FDC1F6FFFEC1F7FFFFC190
:0E3D6000F8FF0101FB07000EFC5BBFD712004D
:023D6E00D9CFAB
:103D7000E6FFDACFE6FFE1CFD9FFE2CFDAFFE65286
:103D8000E652E652E652D950FB0F146EFF0EDA20CF
:103D9000156E14C0DEFFDD6EDECFE6FFDDCFE6FF81
:103DA000FB0EDBCFE6FFFC0EDBCFE6FFFD0EDBCF2D
:103DB000E6FF8CC0E6FF8DC0E6FF9FEC07F0146EB7
:103DC000070EE15C02E2E16AE552E16E1450020E78
:103DD000F3CFDBFF030EF4CFDBFF020EDBCF14F0DB
:103DE000030EDBCF15F014C0F3FF15C0F4FF040E73
:103DF000E15C02E2E16AE552E16EE552E5CFDAFF0D
:063E0000E7CFD9FF12001C
:0A3E0600D9CFE6FFDACFE6FFE1CFE7
:103E1000D9FFE2CFDAFFAC6AAB6AFD0EDBB0AC884B
:103E2000DBA202D0AC8CAB8CDBB4AC8EDBA602D0B8
:103E3000AB8801D0AB8ADBB8AC849E98DBBAAB868A
:103E4000DBAC02D09D8A01D09D9A9E9ADBAE02D057
:103E50009D8801D09D98FB0EDB50AF6EFB0EFC0ED3
:103E6000DBCF15F015C014F0156A1450B06EAC8A93
:103E7000AB8E949C948EAC50100B04E0AC50800B35
:103E800001E1948CE552E5CFDAFFE7CFD9FF1200CC
:103E9000D9CFE6FFDACFE6FFE1CFD9FFE2CFDAFFF5
:103EA000FB0EDBCF14F0FC0EDBCF15F00001800E13
:103EB00015141AE1FB0EDBCFE9FFFC0EDBCFEAFFA6
:103EC000EECFF3FFEDCFF4FFEE2A000EEF22F3CF9B
:103ED000E9FFF4CFEAFFFD0EDBCFEFFFEF50156AED
:103EE000F36E15C0F4FF10D0FB0EDB50FE0806E1A8
:103EF000FD0EDBCFE6FF19EC22F005D0FD0EDBCF87
:103F0000E6FF03EC00F0E552E552E5CFDAFFE7CF3C
:043F1000D9FF1200C3
:0C3F140006500B02F3CF02F0F4CF03F0D4
:103F20000C02F3500326000EF420046E06500D021E
:103F3000F3500426000EF420056E06500E02F350D6
:103F4000052607500B02F3500326F4500422000EFE
:103F5000052207500C02F3500426F45005220750A6
:103F60000D02F350052608500B02F3500426F450BE
:103F7000052208500C02F350052609500B02F3509D
:043F80000526120000
:0C3F8400D9CFE6FFDACFE6FFE1CFD9FF8E
:103F9000E2CFDAFFC26AC06AFC0EDB407F0B3C0B4B
:103FA000C26EFC0EDB38F00B300B146EFB0EDB50D8
:103FB0000F0B1410C16EFD0EDB50040DF350380BC7
:103FC000156EFD0EDB380F0B070B146EFD0EDB506C
:103FD000800B14101510C06EFC0EDBAE03D09E9C3F
:103FE0009D8CF28CC280E552E5CFDAFFE7CFD9FF96
:023FF0001200BD
:0E3FF200FE0EE3CFE9FFFF0EE3CFEAFFF36A16
:10400000F46AEE5203E0F34AF42AFBD71200FF0EE3
:10401000E3CFF8FFE552FF0EE3CFF7FFE552FF0EC7
:10402000E3CFF6FFE552E66AE66AE66A0900F55272
:1040300009E0FD0EE32A05E1FE0EE32A02E1FF0E90
:10404000E32AF4D7FD0EE3CF07F0FE0EE3CF08F02E
:08405000FF0EE3CF09F012009E
:08405800D9CFE6FFDACFE6FF45
:10406000E1CFD9FFE2CFDAFFE652E652FC0EDBCF1A
:1040700014F0FD0EDBCF15F0060ED8901436153671
:10408000E804FBE114C0DEFF15C0DDFF010EDB50CC
:10409000BE6EDF50E840E8403F0B300B146ECF0E91
:1040A000BD141410BD6EE552E552E552E5CFDAFFBE
:0640B000E7CFD9FF12006A
:0A40B600D9CFE6FFDACFE6FFE1CF35
:1040C000D9FFE2CFDAFFF090FD0EDBA202D0F18A39
:1040D00001D0F19ADBA002D0F18E01D0F19EDBACD1
:1040E00002D0F18001D0F190DBAC02D0F08C01D095
:1040F000F09C9382DBAE02D0F08601D0F096E552C0
:0A410000E5CFDAFFE7CFD9FF120088
:06410A00D9CFE6FFDACF79
:10411000E6FFE1CFD9FFE2CFDAFFF292FD0EDBA29C
:1041200002D0F18C01D0F19CDBA002D0F18E01D045
:10413000F19E9380DBAC02D0F18001D0F190DBAE38
:1041400002D0F28801D0F298E552E5CFDAFFE7CF4E
:04415000D9FF120081
:0C415400056A046A036A026A200EE76E26
:10416000D890063607360836093602360336043646
:1041700005360B50025C0C5003580D5004580E507D
:10418000055809E30B50025E0C50035A0D50045AB7
:0C4190000E50055A062AE72EE4D7120054
:04419C00D9CFE6FF92
:1041A000DACFE6FFE1CFD9FFE2CFDAFFFD0EDB5039
:1041B0007E0BCD6EFD0EDBAC02D0CD8E01D0CD9E40
:1041C000CF6ACE6A9E90DBAE02D09D8001D09D90DA
:0E41D000CD80E552E5CFDAFFE7CFD9FF120030
:0241DE00D9CF37
:1041E000E6FFDACFE6FFE1CFD9FFE2CFDAFFE65212
:1041F000F20E00018E17ABAC03D08E91ABB08E8166
:10420000ABB48E85ABB28E87AE50DF6EDF50E55219
:0C421000E552E5CFDAFFE7CFD9FF12003E
:04421C00D9CFE6FF11
:10422000DACFE6FFE1CFD9FFE2CFDAFFE652E6527E
:10423000FC0EDBCFDEFFDBCFDDFF010EDB50CF6EF0
:10424000DF50CE6EE552E552E552E5CFDAFFE7CF1B
:04425000D9FF120080
:0C425400D9CFE6FFDACFE6FFE1CFD9FFBB
:10426000E2CFDAFFE652E652FC0EDBCFDEFFDBCF19
:10427000DDFF010EDB50D76EDF50D66EE552E55202
:0C428000E552E5CFDAFFE7CFD9FF1200CE
:04428C00D9CFE6FFA1
:10429000DACFE6FFE1CFD9FFE2CFDAFFFD0EDB5048
:1042A0007F0BD56ED76AD66AF294FD0EDBAE02D0D4
:1042B000F28A01D0F29AD58EE552E5CFDAFFE7CF48
:0442C000D9FF120010
:0C42C400D9CFE6FFDACFE6FFE1CFD9FF4B
:1042D000E2CFDAFFFD0EDB50FB0BCA6ECC6A9E927A
:1042E000FD0EDBAE02D09D8201D09D92CA84E552C4
:0A42F000E5CFDAFFE7CFD9FF120097
:0642FA00D9CFE6FFDACF88
:10430000E6FFE1CFD9FFE2CFDAFF0C0EBD129494A5
:10431000CA94FD0EDB50CB6ECA84E552E5CFDAFFBE
:0A432000E7CFD9FF120094941200B9
:06432A00FF0EE3502C6EB3
:10433000EF0E01D0F30EE76EE72E9CEF21F00C0E8E
:104340002B6EE76AE72EA2EF21F02B2EA1EF21F0D2
:084350002C2E9AEF21F012005F
:08435800D9CFE6FFDACFE6FF42
:10436000E1CFD9FFE2CFDAFFC30EC214146EFD0E07
:10437000DB407F0B3C0B1410C26EE552E5CFDAFF39
:06438000E7CFD9FF120097
:0A438600056A046A100EE76ED89075
:1043900008360936043605360D50045C0E500558B3
:1043A00005E30D50045E0E50055A082AE72EF0D79B
:0243B0001200F9
:0E43B200F36AF46AFF0EE124E96EFF0EE220CA
:1043C000EA6EED6607D02F0EEF6404D03A0EEF6070
:0643D00001D0F32A1200E7
:0A43D600FF0EE3502C6E480E01D0DC
:1043E0004C0EE76EE72EFED7E76AE72EFED72C2E9F
:0643F000F7D700001200E7
:0A43F600800EF36E00EE00F00F0ED3
:1044000001D81200EA6002D0EE6AFCD7F350E960EE
:064410001200EE6AFCD769
:0A4416001EEE00F02EEE00F0F86A32
:10442000019C68EC1EF049EC22F075EC0FF0FBD714
:02443000120078
:0E443200FF0EE350ACBA04D0AF6AAB8EAC8A7A
:0E444000949CACA2FED7AD6EF36EF46A12002F
:02444E00FF0E5F
:10445000E350E84E1200000000D000D000D0E82E5B
:04446000FAD7120075
:0C446400C450176E166AC3501610F36E99
:0644700017C0F4FF12006A
:0A447600303132333435363738392F
:0744800061626364656600E0
:074487005325632564450085
:02448E00C282E8
:02449000120018
:02449200120016
:02449400FEFF29
:0A449600FFF1E3D7CABFB4AAA19852
:1044A0008F87804341525000000000000000100040
:1044B00050002C000C000000000000000000000074
:1044C0000000610000007700010073000200650039
:1044D0000300640004006600050074000600670025
:1044E0000700790008006800090075000A006A00EA
:1044F0000B006B000C000000040001000200020031
:10450000040003000200040004000500040006008B
:1045100002000700040008000200090004000A006D
:1045200002000B0004000C00040000000000010069
:104530000000020001000300010004000200050069
:10454000030006000300070004000800040009003F
:1045500005000A0005000B0006000C000700000023
:10456000000000000000000000000000000000004B
:05457000000000000046
:0B45750000000000000000000000003B
:0C45800000000000000095000000000199
:020000040030CA
:0100010006F8
:0100020000FD
:0100030000FC
:010005008179
:010006008178
:010008000FE8
:01000900C036
:01000A000FE6
:01000B00E014
:01000D0040B2
:00000001FF
